{
  "_format": "hh-sol-artifact-1",
  "contractName": "CelodevsDetails",
  "sourceName": "contracts/CeloDevDetails.sol",
  "abi": [
    {
      "anonymous": false,
      "inputs": [
        {
          "indexed": false,
          "internalType": "address",
          "name": "walletAddress",
          "type": "address"
        },
        {
          "indexed": false,
          "internalType": "string",
          "name": "name",
          "type": "string"
        },
        {
          "indexed": false,
          "internalType": "string",
          "name": "paymentCurrency",
          "type": "string"
        },
        {
          "indexed": false,
          "internalType": "string",
          "name": "taskDescription",
          "type": "string"
        },
        {
          "indexed": false,
          "internalType": "uint256",
          "name": "rewardAmount",
          "type": "uint256"
        },
        {
          "indexed": false,
          "internalType": "uint256",
          "name": "dateCaptured",
          "type": "uint256"
        }
      ],
      "name": "CelodevDetailsCaptured",
      "type": "event"
    },
    {
      "anonymous": false,
      "inputs": [
        {
          "indexed": true,
          "internalType": "address",
          "name": "owner",
          "type": "address"
        },
        {
          "indexed": true,
          "internalType": "uint256",
          "name": "index",
          "type": "uint256"
        }
      ],
      "name": "CelodevDetailsDeleted",
      "type": "event"
    },
    {
      "anonymous": false,
      "inputs": [
        {
          "indexed": false,
          "internalType": "address",
          "name": "walletAddress",
          "type": "address"
        },
        {
          "indexed": false,
          "internalType": "string",
          "name": "name",
          "type": "string"
        },
        {
          "indexed": false,
          "internalType": "string",
          "name": "paymentCurrency",
          "type": "string"
        },
        {
          "indexed": false,
          "internalType": "string",
          "name": "taskDescription",
          "type": "string"
        },
        {
          "indexed": false,
          "internalType": "uint256",
          "name": "rewardAmount",
          "type": "uint256"
        }
      ],
      "name": "CelodevDetailsUpdated",
      "type": "event"
    },
    {
      "inputs": [
        {
          "internalType": "string",
          "name": "_name",
          "type": "string"
        },
        {
          "internalType": "address",
          "name": "_walletAddress",
          "type": "address"
        },
        {
          "internalType": "string",
          "name": "_paymentCurrency",
          "type": "string"
        },
        {
          "internalType": "string",
          "name": "_taskDescription",
          "type": "string"
        },
        {
          "internalType": "uint256",
          "name": "_rewardAmount",
          "type": "uint256"
        }
      ],
      "name": "captureCelodevDetails",
      "outputs": [],
      "stateMutability": "nonpayable",
      "type": "function"
    },
    {
      "inputs": [
        {
          "internalType": "uint256",
          "name": "_index",
          "type": "uint256"
        }
      ],
      "name": "deleteCelodevDetails",
      "outputs": [],
      "stateMutability": "nonpayable",
      "type": "function"
    },
    {
      "inputs": [
        {
          "internalType": "uint256",
          "name": "_index",
          "type": "uint256"
        }
      ],
      "name": "getCelodevDetails",
      "outputs": [
        {
          "internalType": "address payable",
          "name": "owner",
          "type": "address"
        },
        {
          "internalType": "string",
          "name": "name",
          "type": "string"
        },
        {
          "internalType": "address",
          "name": "walletAddress",
          "type": "address"
        },
        {
          "internalType": "string",
          "name": "paymentCurrency",
          "type": "string"
        },
        {
          "internalType": "string",
          "name": "taskDescription",
          "type": "string"
        },
        {
          "internalType": "uint256",
          "name": "rewardAmount",
          "type": "uint256"
        },
        {
          "internalType": "uint256",
          "name": "dateCaptured",
          "type": "uint256"
        }
      ],
      "stateMutability": "view",
      "type": "function"
    },
    {
      "inputs": [],
      "name": "getNumberOfCelodevs",
      "outputs": [
        {
          "internalType": "uint256",
          "name": "",
          "type": "uint256"
        }
      ],
      "stateMutability": "view",
      "type": "function"
    },
    {
      "inputs": [
        {
          "internalType": "uint256",
          "name": "_index",
          "type": "uint256"
        },
        {
          "internalType": "address",
          "name": "_walletAddress",
          "type": "address"
        },
        {
          "internalType": "string",
          "name": "_name",
          "type": "string"
        },
        {
          "internalType": "string",
          "name": "_paymentCurrency",
          "type": "string"
        },
        {
          "internalType": "string",
          "name": "_taskDescription",
          "type": "string"
        },
        {
          "internalType": "uint256",
          "name": "_rewardAmount",
          "type": "uint256"
        }
      ],
      "name": "updateCelodevDetails",
      "outputs": [],
      "stateMutability": "nonpayable",
      "type": "function"
    }
  ],
  "bytecode": "0x608060405234801561001057600080fd5b50611a5e806100206000396000f3fe608060405234801561001057600080fd5b50600436106100575760003560e01c80631bb18bdf1461005c5780636fe69bad1461007a578063a126c37b14610096578063d83fb41f146100b2578063e01dd0f8146100e8575b600080fd5b610064610104565b6040516100719190610e49565b60405180910390f35b610094600480360381019061008f9190611048565b61014b565b005b6100b060048036038101906100ab9190611129565b6103eb565b005b6100cc60048036038101906100c791906111f8565b610634565b6040516100df97969594939291906112d4565b60405180910390f35b61010260048036038101906100fd91906111f8565b6109e3565b005b6000600160003373ffffffffffffffffffffffffffffffffffffffff1673ffffffffffffffffffffffffffffffffffffffff16815260200190815260200160002054905090565b85600160003373ffffffffffffffffffffffffffffffffffffffff1673ffffffffffffffffffffffffffffffffffffffff1681526020019081526020016000205481106101cd576040517f08c379a00000000000000000000000000000000000000000000000000000000081526004016101c4906113a4565b60405180910390fd5b863373ffffffffffffffffffffffffffffffffffffffff166000803373ffffffffffffffffffffffffffffffffffffffff1673ffffffffffffffffffffffffffffffffffffffff1681526020019081526020016000208281548110610235576102346113c4565b5b906000526020600020906007020160000160009054906101000a900473ffffffffffffffffffffffffffffffffffffffff1673ffffffffffffffffffffffffffffffffffffffff16146102bd576040517f08c379a00000000000000000000000000000000000000000000000000000000081526004016102b490611465565b60405180910390fd5b60008060003373ffffffffffffffffffffffffffffffffffffffff1673ffffffffffffffffffffffffffffffffffffffff168152602001908152602001600020898154811061030f5761030e6113c4565b5b90600052602060002090600702019050868160010190816103309190611691565b50878160020160006101000a81548173ffffffffffffffffffffffffffffffffffffffff021916908373ffffffffffffffffffffffffffffffffffffffff160217905550858160030190816103859190611691565b50848160040190816103979190611691565b508381600501819055507f52663cbb6c7d1dbcdf76e253076f87970abf5445f993979a6b88c8bbebba1f2188888888886040516103d8959493929190611763565b60405180910390a1505050505050505050565b6000803373ffffffffffffffffffffffffffffffffffffffff1673ffffffffffffffffffffffffffffffffffffffff1681526020019081526020016000206040518060e001604052803373ffffffffffffffffffffffffffffffffffffffff1681526020018781526020018673ffffffffffffffffffffffffffffffffffffffff16815260200185815260200184815260200183815260200142815250908060018154018082558091505060019003906000526020600020906007020160009091909190915060008201518160000160006101000a81548173ffffffffffffffffffffffffffffffffffffffff021916908373ffffffffffffffffffffffffffffffffffffffff160217905550602082015181600101908161050d9190611691565b5060408201518160020160006101000a81548173ffffffffffffffffffffffffffffffffffffffff021916908373ffffffffffffffffffffffffffffffffffffffff160217905550606082015181600301908161056a9190611691565b5060808201518160040190816105809190611691565b5060a0820151816005015560c082015181600601555050600160003373ffffffffffffffffffffffffffffffffffffffff1673ffffffffffffffffffffffffffffffffffffffff16815260200190815260200160002060008154809291906105e7906117fa565b91905055507fc432a10ecb527544202857430cc76da72b60901837b7127e920e690a06a767e184868585854260405161062596959493929190611842565b60405180910390a15050505050565b60006060600060608060008087600160003373ffffffffffffffffffffffffffffffffffffffff1673ffffffffffffffffffffffffffffffffffffffff1681526020019081526020016000205481106106c2576040517f08c379a00000000000000000000000000000000000000000000000000000000081526004016106b9906113a4565b60405180910390fd5b60008060003373ffffffffffffffffffffffffffffffffffffffff1673ffffffffffffffffffffffffffffffffffffffff1681526020019081526020016000208a81548110610714576107136113c4565b5b90600052602060002090600702016040518060e00160405290816000820160009054906101000a900473ffffffffffffffffffffffffffffffffffffffff1673ffffffffffffffffffffffffffffffffffffffff1673ffffffffffffffffffffffffffffffffffffffff168152602001600182018054610793906114b4565b80601f01602080910402602001604051908101604052809291908181526020018280546107bf906114b4565b801561080c5780601f106107e15761010080835404028352916020019161080c565b820191906000526020600020905b8154815290600101906020018083116107ef57829003601f168201915b505050505081526020016002820160009054906101000a900473ffffffffffffffffffffffffffffffffffffffff1673ffffffffffffffffffffffffffffffffffffffff1673ffffffffffffffffffffffffffffffffffffffff16815260200160038201805461087b906114b4565b80601f01602080910402602001604051908101604052809291908181526020018280546108a7906114b4565b80156108f45780601f106108c9576101008083540402835291602001916108f4565b820191906000526020600020905b8154815290600101906020018083116108d757829003601f168201915b5050505050815260200160048201805461090d906114b4565b80601f0160208091040260200160405190810160405280929190818152602001828054610939906114b4565b80156109865780601f1061095b57610100808354040283529160200191610986565b820191906000526020600020905b81548152906001019060200180831161096957829003601f168201915b50505050508152602001600582015481526020016006820154815250509050806000015181602001518260400151836060015184608001518560a001518660c0015198509850985098509850985098505050919395979092949650565b80600160003373ffffffffffffffffffffffffffffffffffffffff1673ffffffffffffffffffffffffffffffffffffffff168152602001908152602001600020548110610a65576040517f08c379a0000000000000000000000000000000000000000000000000000000008152600401610a5c906113a4565b60405180910390fd5b813373ffffffffffffffffffffffffffffffffffffffff166000803373ffffffffffffffffffffffffffffffffffffffff1673ffffffffffffffffffffffffffffffffffffffff1681526020019081526020016000208281548110610acd57610acc6113c4565b5b906000526020600020906007020160000160009054906101000a900473ffffffffffffffffffffffffffffffffffffffff1673ffffffffffffffffffffffffffffffffffffffff1614610b55576040517f08c379a0000000000000000000000000000000000000000000000000000000008152600401610b4c90611465565b60405180910390fd5b600060018060003373ffffffffffffffffffffffffffffffffffffffff1673ffffffffffffffffffffffffffffffffffffffff16815260200190815260200160002054610ba291906118b8565b905060008060003373ffffffffffffffffffffffffffffffffffffffff1673ffffffffffffffffffffffffffffffffffffffff1681526020019081526020016000208281548110610bf657610bf56113c4565b5b9060005260206000209060070201905060008060003373ffffffffffffffffffffffffffffffffffffffff1673ffffffffffffffffffffffffffffffffffffffff1681526020019081526020016000208681548110610c5857610c576113c4565b5b9060005260206000209060070201905081600101816001019081610c7c9190611917565b508160020160009054906101000a900473ffffffffffffffffffffffffffffffffffffffff168160020160006101000a81548173ffffffffffffffffffffffffffffffffffffffff021916908373ffffffffffffffffffffffffffffffffffffffff16021790555081600301816003019081610cf89190611917565b5081600401816003019081610d0d9190611917565b5081600501548160050181905550816006015481600601819055508160000160009054906101000a900473ffffffffffffffffffffffffffffffffffffffff168160000160006101000a81548173ffffffffffffffffffffffffffffffffffffffff021916908373ffffffffffffffffffffffffffffffffffffffff160217905550600160003373ffffffffffffffffffffffffffffffffffffffff1673ffffffffffffffffffffffffffffffffffffffff1681526020019081526020016000206000815480929190610ddf906119ff565b9190505550853373ffffffffffffffffffffffffffffffffffffffff167ffba88b91f6200a154126492eb87b597f3a915ca27b7f6dfca5a3e05c2c8a9f2d60405160405180910390a3505050505050565b6000819050919050565b610e4381610e30565b82525050565b6000602082019050610e5e6000830184610e3a565b92915050565b6000604051905090565b600080fd5b600080fd5b610e8181610e30565b8114610e8c57600080fd5b50565b600081359050610e9e81610e78565b92915050565b600073ffffffffffffffffffffffffffffffffffffffff82169050919050565b6000610ecf82610ea4565b9050919050565b610edf81610ec4565b8114610eea57600080fd5b50565b600081359050610efc81610ed6565b92915050565b600080fd5b600080fd5b6000601f19601f8301169050919050565b7f4e487b7100000000000000000000000000000000000000000000000000000000600052604160045260246000fd5b610f5582610f0c565b810181811067ffffffffffffffff82111715610f7457610f73610f1d565b5b80604052505050565b6000610f87610e64565b9050610f938282610f4c565b919050565b600067ffffffffffffffff821115610fb357610fb2610f1d565b5b610fbc82610f0c565b9050602081019050919050565b82818337600083830152505050565b6000610feb610fe684610f98565b610f7d565b90508281526020810184848401111561100757611006610f07565b5b611012848285610fc9565b509392505050565b600082601f83011261102f5761102e610f02565b5b813561103f848260208601610fd8565b91505092915050565b60008060008060008060c0878903121561106557611064610e6e565b5b600061107389828a01610e8f565b965050602061108489828a01610eed565b955050604087013567ffffffffffffffff8111156110a5576110a4610e73565b5b6110b189828a0161101a565b945050606087013567ffffffffffffffff8111156110d2576110d1610e73565b5b6110de89828a0161101a565b935050608087013567ffffffffffffffff8111156110ff576110fe610e73565b5b61110b89828a0161101a565b92505060a061111c89828a01610e8f565b9150509295509295509295565b600080600080600060a0868803121561114557611144610e6e565b5b600086013567ffffffffffffffff81111561116357611162610e73565b5b61116f8882890161101a565b955050602061118088828901610eed565b945050604086013567ffffffffffffffff8111156111a1576111a0610e73565b5b6111ad8882890161101a565b935050606086013567ffffffffffffffff8111156111ce576111cd610e73565b5b6111da8882890161101a565b92505060806111eb88828901610e8f565b9150509295509295909350565b60006020828403121561120e5761120d610e6e565b5b600061121c84828501610e8f565b91505092915050565b600061123082610ea4565b9050919050565b61124081611225565b82525050565b600081519050919050565b600082825260208201905092915050565b60005b83811015611280578082015181840152602081019050611265565b60008484015250505050565b600061129782611246565b6112a18185611251565b93506112b1818560208601611262565b6112ba81610f0c565b840191505092915050565b6112ce81610ec4565b82525050565b600060e0820190506112e9600083018a611237565b81810360208301526112fb818961128c565b905061130a60408301886112c5565b818103606083015261131c818761128c565b90508181036080830152611330818661128c565b905061133f60a0830185610e3a565b61134c60c0830184610e3a565b98975050505050505050565b7f496e76616c69642043656c6f64657620696e6465780000000000000000000000600082015250565b600061138e601583611251565b915061139982611358565b602082019050919050565b600060208201905081810360008301526113bd81611381565b9050919050565b7f4e487b7100000000000000000000000000000000000000000000000000000000600052603260045260246000fd5b7f596f7520617265206e6f7420617574686f72697a656420746f20706572666f7260008201527f6d207468697320616374696f6e00000000000000000000000000000000000000602082015250565b600061144f602d83611251565b915061145a826113f3565b604082019050919050565b6000602082019050818103600083015261147e81611442565b9050919050565b7f4e487b7100000000000000000000000000000000000000000000000000000000600052602260045260246000fd5b600060028204905060018216806114cc57607f821691505b6020821081036114df576114de611485565b5b50919050565b60008190508160005260206000209050919050565b60006020601f8301049050919050565b600082821b905092915050565b6000600883026115477fffffffffffffffffffffffffffffffffffffffffffffffffffffffffffffffff8261150a565b611551868361150a565b95508019841693508086168417925050509392505050565b6000819050919050565b600061158e61158961158484610e30565b611569565b610e30565b9050919050565b6000819050919050565b6115a883611573565b6115bc6115b482611595565b848454611517565b825550505050565b600090565b6115d16115c4565b6115dc81848461159f565b505050565b5b81811015611600576115f56000826115c9565b6001810190506115e2565b5050565b601f82111561164557611616816114e5565b61161f846114fa565b8101602085101561162e578190505b61164261163a856114fa565b8301826115e1565b50505b505050565b600082821c905092915050565b60006116686000198460080261164a565b1980831691505092915050565b60006116818383611657565b9150826002028217905092915050565b61169a82611246565b67ffffffffffffffff8111156116b3576116b2610f1d565b5b6116bd82546114b4565b6116c8828285611604565b600060209050601f8311600181146116fb57600084156116e9578287015190505b6116f38582611675565b86555061175b565b601f198416611709866114e5565b60005b828110156117315784890151825560018201915060208501945060208101905061170c565b8683101561174e578489015161174a601f891682611657565b8355505b6001600288020188555050505b505050505050565b600060a08201905061177860008301886112c5565b818103602083015261178a818761128c565b9050818103604083015261179e818661128c565b905081810360608301526117b2818561128c565b90506117c16080830184610e3a565b9695505050505050565b7f4e487b7100000000000000000000000000000000000000000000000000000000600052601160045260246000fd5b600061180582610e30565b91507fffffffffffffffffffffffffffffffffffffffffffffffffffffffffffffffff8203611837576118366117cb565b5b600182019050919050565b600060c08201905061185760008301896112c5565b8181036020830152611869818861128c565b9050818103604083015261187d818761128c565b90508181036060830152611891818661128c565b90506118a06080830185610e3a565b6118ad60a0830184610e3a565b979650505050505050565b60006118c382610e30565b91506118ce83610e30565b92508282039050818111156118e6576118e56117cb565b5b92915050565b6000815490506118fb816114b4565b9050919050565b60008190508160005260206000209050919050565b8181036119255750506119fd565b61192e826118ec565b67ffffffffffffffff81111561194757611946610f1d565b5b61195182546114b4565b61195c828285611604565b6000601f83116001811461198b5760008415611979578287015490505b6119838582611675565b8655506119f6565b601f19841661199987611902565b96506119a4866114e5565b60005b828110156119cc578489015482556001820191506001850194506020810190506119a7565b868310156119e957848901546119e5601f891682611657565b8355505b6001600288020188555050505b5050505050505b565b6000611a0a82610e30565b915060008203611a1d57611a1c6117cb565b5b60018203905091905056fea2646970667358221220a476b83ef245bfa2c923748d1f62af2ba5cf19be20ef809cca31e3d771d64be864736f6c63430008130033",
  "linkReferences": {},
  "deployedLinkReferences": {}
}