{
  "address": "0xD585A5FB2D10D28c880DC67E7Ff549B916dCcA44",
  "abi": [
    {
      "inputs": [],
      "stateMutability": "nonpayable",
      "type": "constructor"
    },
    {
      "anonymous": false,
      "inputs": [
        {
          "indexed": true,
          "internalType": "address",
          "name": "sender",
          "type": "address"
        },
        {
          "indexed": true,
          "internalType": "address",
          "name": "receiver",
          "type": "address"
        },
        {
          "indexed": false,
          "internalType": "uint256",
          "name": "pickupTime",
          "type": "uint256"
        },
        {
          "indexed": false,
          "internalType": "uint256",
          "name": "distance",
          "type": "uint256"
        },
        {
          "indexed": false,
          "internalType": "uint256",
          "name": "price",
          "type": "uint256"
        }
      ],
      "name": "ShipmentCreated",
      "type": "event"
    },
    {
      "anonymous": false,
      "inputs": [
        {
          "indexed": true,
          "internalType": "address",
          "name": "sender",
          "type": "address"
        },
        {
          "indexed": true,
          "internalType": "address",
          "name": "receiver",
          "type": "address"
        },
        {
          "indexed": false,
          "internalType": "uint256",
          "name": "deliveryTime",
          "type": "uint256"
        }
      ],
      "name": "ShipmentDelivered",
      "type": "event"
    },
    {
      "anonymous": false,
      "inputs": [
        {
          "indexed": true,
          "internalType": "address",
          "name": "sender",
          "type": "address"
        },
        {
          "indexed": true,
          "internalType": "address",
          "name": "receiver",
          "type": "address"
        },
        {
          "indexed": false,
          "internalType": "uint256",
          "name": "pickupTime",
          "type": "uint256"
        }
      ],
      "name": "ShipmentInTransit",
      "type": "event"
    },
    {
      "anonymous": false,
      "inputs": [
        {
          "indexed": true,
          "internalType": "address",
          "name": "sender",
          "type": "address"
        },
        {
          "indexed": true,
          "internalType": "address",
          "name": "receiver",
          "type": "address"
        },
        {
          "indexed": false,
          "internalType": "uint256",
          "name": "amount",
          "type": "uint256"
        }
      ],
      "name": "ShipmentPaid",
      "type": "event"
    },
    {
      "inputs": [
        {
          "internalType": "address",
          "name": "_sender",
          "type": "address"
        },
        {
          "internalType": "address",
          "name": "_receiver",
          "type": "address"
        },
        {
          "internalType": "uint256",
          "name": "_index",
          "type": "uint256"
        }
      ],
      "name": "completeShipment",
      "outputs": [],
      "stateMutability": "nonpayable",
      "type": "function"
    },
    {
      "inputs": [
        {
          "internalType": "address",
          "name": "_receiver",
          "type": "address"
        },
        {
          "internalType": "uint256",
          "name": "_pickupTime",
          "type": "uint256"
        },
        {
          "internalType": "uint256",
          "name": "_distance",
          "type": "uint256"
        },
        {
          "internalType": "uint256",
          "name": "_price",
          "type": "uint256"
        }
      ],
      "name": "createShipment",
      "outputs": [],
      "stateMutability": "payable",
      "type": "function"
    },
    {
      "inputs": [],
      "name": "getAllTransactions",
      "outputs": [
        {
          "components": [
            {
              "internalType": "address",
              "name": "sender",
              "type": "address"
            },
            {
              "internalType": "address",
              "name": "receiver",
              "type": "address"
            },
            {
              "internalType": "uint256",
              "name": "pickupTime",
              "type": "uint256"
            },
            {
              "internalType": "uint256",
              "name": "deliveryTime",
              "type": "uint256"
            },
            {
              "internalType": "uint256",
              "name": "distance",
              "type": "uint256"
            },
            {
              "internalType": "uint256",
              "name": "price",
              "type": "uint256"
            },
            {
              "internalType": "enum SupplyChainTracking.ShipmentStatus",
              "name": "status",
              "type": "uint8"
            },
            {
              "internalType": "bool",
              "name": "isPaid",
              "type": "bool"
            }
          ],
          "internalType": "struct SupplyChainTracking.TypeShipment[]",
          "name": "",
          "type": "tuple[]"
        }
      ],
      "stateMutability": "view",
      "type": "function"
    },
    {
      "inputs": [
        {
          "internalType": "address",
          "name": "_sender",
          "type": "address"
        },
        {
          "internalType": "uint256",
          "name": "_index",
          "type": "uint256"
        }
      ],
      "name": "getShipment",
      "outputs": [
        {
          "internalType": "address",
          "name": "",
          "type": "address"
        },
        {
          "internalType": "address",
          "name": "",
          "type": "address"
        },
        {
          "internalType": "uint256",
          "name": "",
          "type": "uint256"
        },
        {
          "internalType": "uint256",
          "name": "",
          "type": "uint256"
        },
        {
          "internalType": "uint256",
          "name": "",
          "type": "uint256"
        },
        {
          "internalType": "uint256",
          "name": "",
          "type": "uint256"
        },
        {
          "internalType": "enum SupplyChainTracking.ShipmentStatus",
          "name": "",
          "type": "uint8"
        },
        {
          "internalType": "bool",
          "name": "",
          "type": "bool"
        }
      ],
      "stateMutability": "view",
      "type": "function"
    },
    {
      "inputs": [
        {
          "internalType": "address",
          "name": "_sender",
          "type": "address"
        }
      ],
      "name": "getShipmentsCount",
      "outputs": [
        {
          "internalType": "uint256",
          "name": "",
          "type": "uint256"
        }
      ],
      "stateMutability": "view",
      "type": "function"
    },
    {
      "inputs": [],
      "name": "shipmentCount",
      "outputs": [
        {
          "internalType": "uint256",
          "name": "",
          "type": "uint256"
        }
      ],
      "stateMutability": "view",
      "type": "function"
    },
    {
      "inputs": [
        {
          "internalType": "address",
          "name": "",
          "type": "address"
        },
        {
          "internalType": "uint256",
          "name": "",
          "type": "uint256"
        }
      ],
      "name": "shipments",
      "outputs": [
        {
          "internalType": "address",
          "name": "sender",
          "type": "address"
        },
        {
          "internalType": "address",
          "name": "receiver",
          "type": "address"
        },
        {
          "internalType": "uint256",
          "name": "pickupTime",
          "type": "uint256"
        },
        {
          "internalType": "uint256",
          "name": "deliveryTime",
          "type": "uint256"
        },
        {
          "internalType": "uint256",
          "name": "distance",
          "type": "uint256"
        },
        {
          "internalType": "uint256",
          "name": "price",
          "type": "uint256"
        },
        {
          "internalType": "enum SupplyChainTracking.ShipmentStatus",
          "name": "status",
          "type": "uint8"
        },
        {
          "internalType": "bool",
          "name": "isPaid",
          "type": "bool"
        }
      ],
      "stateMutability": "view",
      "type": "function"
    },
    {
      "inputs": [
        {
          "internalType": "address",
          "name": "_sender",
          "type": "address"
        },
        {
          "internalType": "address",
          "name": "_receiver",
          "type": "address"
        },
        {
          "internalType": "uint256",
          "name": "_index",
          "type": "uint256"
        }
      ],
      "name": "startShipment",
      "outputs": [],
      "stateMutability": "nonpayable",
      "type": "function"
    }
  ],
  "transactionHash": "0x04b349f470a22fa2cb6cb1ac13a86811c0857a65e3a667cc4f382a16f13cafaf",
  "args": [],
  "numDeployments": 1,
  "solcInputHash": "bad8e70359c9161e60060da3e9f3acc0",
  "bytecode": "0x608060405234801561001057600080fd5b506000600155610e19806100256000396000f3fe60806040526004361061007b5760003560e01c80637ff5265d1161004e5780637ff5265d146101455780638365da5414610165578063aace20b714610185578063cbc4b1811461019b57600080fd5b8063179a878c1461008057806327506f53146100a257806341fdc195146100cd5780635667e02f14610111575b600080fd5b34801561008c57600080fd5b506100a061009b366004610bb1565b6101ae565b005b3480156100ae57600080fd5b506100b761044a565b6040516100c49190610c25565b60405180910390f35b3480156100d957600080fd5b506101036100e8366004610cca565b6001600160a01b031660009081526020819052604090205490565b6040519081526020016100c4565b34801561011d57600080fd5b5061013161012c366004610cec565b61053f565b6040516100c4989796959493929190610d16565b34801561015157600080fd5b506100a0610160366004610bb1565b6105b2565b34801561017157600080fd5b50610131610180366004610cec565b61073d565b34801561019157600080fd5b5061010360015481565b6100a06101a9366004610d6d565b610879565b6001600160a01b03831660009081526020819052604081208054839081106101d8576101d8610da6565b906000526020600020906007020190506000600283815481106101fd576101fd610da6565b60009182526020909120600184015460079092020191506001600160a01b038581169116146102675760405162461bcd60e51b815260206004820152601160248201527024b73b30b634b2103932b1b2b4bb32b91760791b60448201526064015b60405180910390fd5b6001600683015460ff16600281111561028257610282610bed565b146102cf5760405162461bcd60e51b815260206004820152601860248201527f536869706d656e74206e6f7420696e207472616e7369742e0000000000000000604482015260640161025e565b6006820154610100900460ff16156103225760405162461bcd60e51b815260206004820152601660248201527529b434b836b2b73a1030b63932b0b23c903830b4b21760511b604482015260640161025e565b60068281018054600260ff1991821681179092559183018054909216179055426003808301829055830155600582015482546040516001600160a01b039091169082156108fc029083906000818181858888f1935050505015801561038b573d6000803e3d6000fd5b506006838101805461010061ff00199182168117909255918401805490921617905560038301546040519081526001600160a01b0386811691908816907f3746ccceb54f44c9b0ee0120e596168d07ec9f6ca303cfdd9810d3b2e2686a2e9060200160405180910390a3846001600160a01b0316866001600160a01b03167f2b6f2473aebafaf8d0889669490135928ec4454d2e29a103fd39693bbca6aef18360405161043a91815260200190565b60405180910390a3505050505050565b60606002805480602002602001604051908101604052809291908181526020016000905b8282101561053657600084815260209081902060408051610100810182526007860290920180546001600160a01b03908116845260018201541693830193909352600280840154918301919091526003830154606083015260048301546080830152600583015460a0830152600683015491929160c084019160ff909116908111156104fc576104fc610bed565b600281111561050d5761050d610bed565b815260069190910154610100900460ff161515602091820152908252600192909201910161046e565b50505050905090565b6000602052816000526040600020818154811061055b57600080fd5b600091825260209091206007909102018054600182015460028301546003840154600485015460058601546006909601546001600160a01b0395861698509490931695509093909260ff8082169161010090041688565b6001600160a01b03831660009081526020819052604081208054839081106105dc576105dc610da6565b9060005260206000209060070201905060006002838154811061060157610601610da6565b60009182526020909120600184015460079092020191506001600160a01b038581169116146106665760405162461bcd60e51b815260206004820152601160248201527024b73b30b634b2103932b1b2b4bb32b91760791b604482015260640161025e565b6000600683015460ff16600281111561068157610681610bed565b146106ce5760405162461bcd60e51b815260206004820152601c60248201527f536869706d656e7420616c726561647920696e207472616e7369742e00000000604482015260640161025e565b60068281018054600160ff199182168117909255918301805490921617905560028201546040519081526001600160a01b0385811691908716907faafab9f94340179ff9cefd29621e1772a4b8efab8023163838f1b0a8f6ce5df5906020015b60405180910390a35050505050565b60008060008060008060008060008060008c6001600160a01b03166001600160a01b031681526020019081526020016000208a8154811061078057610780610da6565b60009182526020918290206040805161010081018252600790930290910180546001600160a01b03908116845260018201541693830193909352600280840154918301919091526003830154606083015260048301546080830152600583015460a0830152600683015491929160c084019160ff9091169081111561080757610807610bed565b600281111561081857610818610bed565b81526006919091015460ff61010090910416151560209182015281519082015160408301516060840151608085015160a086015160c087015160e090970151959f50939d50919b509950975095509093509150509295985092959890939650565b8034146108d45760405162461bcd60e51b8152602060048201526024808201527f5061796d656e7420616d6f756e74206d757374206d617463682074686520707260448201526334b1b29760e11b606482015260840161025e565b6000604051806101000160405280336001600160a01b03168152602001866001600160a01b03168152602001858152602001600081526020018481526020018381526020016000600281111561092c5761092c610bed565b815260006020918201819052338152808252604080822080546001818101835591845292849020855160079094020180546001600160a01b039485166001600160a01b031991821617825594860151818301805491909516951694909417909255830151600280840191909155606084015160038401556080840151600484015560a0840151600584015560c084015160068401805495965086959193909260ff199092169184908111156109e3576109e3610bed565b021790555060e09190910151600690910180549115156101000261ff001990921691909117905560018054906000610a1a83610dbc565b91905055506002604051806101000160405280336001600160a01b03168152602001876001600160a01b031681526020018681526020016000815260200185815260200184815260200160006002811115610a7757610a77610bed565b81526000602091820181905283546001818101865594825290829020835160079092020180546001600160a01b039283166001600160a01b03199182161782559284015181860180549190931693169290921790556040820151600280830191909155606083015160038301556080830151600483015560a0830151600583015560c0830151600683018054949593949193909260ff19909216918490811115610b2357610b23610bed565b021790555060e09190910151600690910180549115156101000261ff001990921691909117905560408051858152602081018590529081018390526001600160a01b0386169033907f5001b34ecf2db5b7bbeddcbbe761ec9ecadcc7638018b98ce3e24995b0e946b69060600161072e565b80356001600160a01b0381168114610bac57600080fd5b919050565b600080600060608486031215610bc657600080fd5b610bcf84610b95565b9250610bdd60208501610b95565b9150604084013590509250925092565b634e487b7160e01b600052602160045260246000fd5b60038110610c2157634e487b7160e01b600052602160045260246000fd5b9052565b602080825282518282018190526000919060409081850190868401855b82811015610cbd57815180516001600160a01b0390811686528782015116878601528581015186860152606080820151908601526080808201519086015260a0808201519086015260c080820151610c9c82880182610c03565b505060e0908101511515908501526101009093019290850190600101610c42565b5091979650505050505050565b600060208284031215610cdc57600080fd5b610ce582610b95565b9392505050565b60008060408385031215610cff57600080fd5b610d0883610b95565b946020939093013593505050565b6001600160a01b0389811682528816602082015260408101879052606081018690526080810185905260a081018490526101008101610d5860c0830185610c03565b82151560e08301529998505050505050505050565b60008060008060808587031215610d8357600080fd5b610d8c85610b95565b966020860135965060408601359560600135945092505050565b634e487b7160e01b600052603260045260246000fd5b600060018201610ddc57634e487b7160e01b600052601160045260246000fd5b506001019056fea264697066735822122000a4dfad401f568e069f8b8823ad3b98aa820bd425313c8e714217de01e3318a64736f6c63430008110033",
  "devdoc": {
    "kind": "dev",
    "methods": {},
    "version": 1
  },
  "userdoc": {
    "kind": "user",
    "methods": {},
    "version": 1
  },
  "storageLayout": {
    "storage": [
      {
        "astId": 29,
        "contract": "contracts/SupplyChainTracking.sol:SupplyChainTracking",
        "label": "shipments",
        "offset": 0,
        "slot": "0",
        "type": "t_mapping(t_address,t_array(t_struct(Shipment)23_storage)dyn_storage)"
      },
      {
        "astId": 31,
        "contract": "contracts/SupplyChainTracking.sol:SupplyChainTracking",
        "label": "shipmentCount",
        "offset": 0,
        "slot": "1",
        "type": "t_uint256"
      },
      {
        "astId": 53,
        "contract": "contracts/SupplyChainTracking.sol:SupplyChainTracking",
        "label": "typeShipments",
        "offset": 0,
        "slot": "2",
        "type": "t_array(t_struct(TypeShipment)49_storage)dyn_storage"
      }
    ],
    "types": {
      "t_address": {
        "encoding": "inplace",
        "label": "address",
        "numberOfBytes": "20"
      },
      "t_array(t_struct(Shipment)23_storage)dyn_storage": {
        "base": "t_struct(Shipment)23_storage",
        "encoding": "dynamic_array",
        "label": "struct SupplyChainTracking.Shipment[]",
        "numberOfBytes": "32"
      },
      "t_array(t_struct(TypeShipment)49_storage)dyn_storage": {
        "base": "t_struct(TypeShipment)49_storage",
        "encoding": "dynamic_array",
        "label": "struct SupplyChainTracking.TypeShipment[]",
        "numberOfBytes": "32"
      },
      "t_bool": {
        "encoding": "inplace",
        "label": "bool",
        "numberOfBytes": "1"
      },
      "t_enum(ShipmentStatus)5": {
        "encoding": "inplace",
        "label": "enum SupplyChainTracking.ShipmentStatus",
        "numberOfBytes": "1"
      },
      "t_mapping(t_address,t_array(t_struct(Shipment)23_storage)dyn_storage)": {
        "encoding": "mapping",
        "key": "t_address",
        "label": "mapping(address => struct SupplyChainTracking.Shipment[])",
        "numberOfBytes": "32",
        "value": "t_array(t_struct(Shipment)23_storage)dyn_storage"
      },
      "t_struct(Shipment)23_storage": {
        "encoding": "inplace",
        "label": "struct SupplyChainTracking.Shipment",
        "members": [
          {
            "astId": 7,
            "contract": "contracts/SupplyChainTracking.sol:SupplyChainTracking",
            "label": "sender",
            "offset": 0,
            "slot": "0",
            "type": "t_address"
          },
          {
            "astId": 9,
            "contract": "contracts/SupplyChainTracking.sol:SupplyChainTracking",
            "label": "receiver",
            "offset": 0,
            "slot": "1",
            "type": "t_address"
          },
          {
            "astId": 11,
            "contract": "contracts/SupplyChainTracking.sol:SupplyChainTracking",
            "label": "pickupTime",
            "offset": 0,
            "slot": "2",
            "type": "t_uint256"
          },
          {
            "astId": 13,
            "contract": "contracts/SupplyChainTracking.sol:SupplyChainTracking",
            "label": "deliveryTime",
            "offset": 0,
            "slot": "3",
            "type": "t_uint256"
          },
          {
            "astId": 15,
            "contract": "contracts/SupplyChainTracking.sol:SupplyChainTracking",
            "label": "distance",
            "offset": 0,
            "slot": "4",
            "type": "t_uint256"
          },
          {
            "astId": 17,
            "contract": "contracts/SupplyChainTracking.sol:SupplyChainTracking",
            "label": "price",
            "offset": 0,
            "slot": "5",
            "type": "t_uint256"
          },
          {
            "astId": 20,
            "contract": "contracts/SupplyChainTracking.sol:SupplyChainTracking",
            "label": "status",
            "offset": 0,
            "slot": "6",
            "type": "t_enum(ShipmentStatus)5"
          },
          {
            "astId": 22,
            "contract": "contracts/SupplyChainTracking.sol:SupplyChainTracking",
            "label": "isPaid",
            "offset": 1,
            "slot": "6",
            "type": "t_bool"
          }
        ],
        "numberOfBytes": "224"
      },
      "t_struct(TypeShipment)49_storage": {
        "encoding": "inplace",
        "label": "struct SupplyChainTracking.TypeShipment",
        "members": [
          {
            "astId": 33,
            "contract": "contracts/SupplyChainTracking.sol:SupplyChainTracking",
            "label": "sender",
            "offset": 0,
            "slot": "0",
            "type": "t_address"
          },
          {
            "astId": 35,
            "contract": "contracts/SupplyChainTracking.sol:SupplyChainTracking",
            "label": "receiver",
            "offset": 0,
            "slot": "1",
            "type": "t_address"
          },
          {
            "astId": 37,
            "contract": "contracts/SupplyChainTracking.sol:SupplyChainTracking",
            "label": "pickupTime",
            "offset": 0,
            "slot": "2",
            "type": "t_uint256"
          },
          {
            "astId": 39,
            "contract": "contracts/SupplyChainTracking.sol:SupplyChainTracking",
            "label": "deliveryTime",
            "offset": 0,
            "slot": "3",
            "type": "t_uint256"
          },
          {
            "astId": 41,
            "contract": "contracts/SupplyChainTracking.sol:SupplyChainTracking",
            "label": "distance",
            "offset": 0,
            "slot": "4",
            "type": "t_uint256"
          },
          {
            "astId": 43,
            "contract": "contracts/SupplyChainTracking.sol:SupplyChainTracking",
            "label": "price",
            "offset": 0,
            "slot": "5",
            "type": "t_uint256"
          },
          {
            "astId": 46,
            "contract": "contracts/SupplyChainTracking.sol:SupplyChainTracking",
            "label": "status",
            "offset": 0,
            "slot": "6",
            "type": "t_enum(ShipmentStatus)5"
          },
          {
            "astId": 48,
            "contract": "contracts/SupplyChainTracking.sol:SupplyChainTracking",
            "label": "isPaid",
            "offset": 1,
            "slot": "6",
            "type": "t_bool"
          }
        ],
        "numberOfBytes": "224"
      },
      "t_uint256": {
        "encoding": "inplace",
        "label": "uint256",
        "numberOfBytes": "32"
      }
    }
  }
}