{
  "_format": "hh-sol-artifact-1",
  "contractName": "CelodevsDetails",
  "sourceName": "contracts/CeloDevDetails.sol",
  "abi": [
    {
      "anonymous": false,
      "inputs": [
        {
          "indexed": false,
          "internalType": "address",
          "name": "walletAddress",
          "type": "address"
        },
        {
          "indexed": false,
          "internalType": "string",
          "name": "name",
          "type": "string"
        },
        {
          "indexed": false,
          "internalType": "string",
          "name": "paymentCurrency",
          "type": "string"
        },
        {
          "indexed": false,
          "internalType": "string",
          "name": "taskDescription",
          "type": "string"
        },
        {
          "indexed": false,
          "internalType": "uint256",
          "name": "rewardAmount",
          "type": "uint256"
        },
        {
          "indexed": false,
          "internalType": "uint256",
          "name": "dateCaptured",
          "type": "uint256"
        }
      ],
      "name": "CelodevDetailsCaptured",
      "type": "event"
    },
    {
      "anonymous": false,
      "inputs": [
        {
          "indexed": true,
          "internalType": "address",
          "name": "owner",
          "type": "address"
        },
        {
          "indexed": true,
          "internalType": "uint256",
          "name": "index",
          "type": "uint256"
        }
      ],
      "name": "CelodevDetailsDeleted",
      "type": "event"
    },
    {
      "anonymous": false,
      "inputs": [
        {
          "indexed": false,
          "internalType": "address",
          "name": "walletAddress",
          "type": "address"
        },
        {
          "indexed": false,
          "internalType": "string",
          "name": "name",
          "type": "string"
        },
        {
          "indexed": false,
          "internalType": "string",
          "name": "paymentCurrency",
          "type": "string"
        },
        {
          "indexed": false,
          "internalType": "string",
          "name": "taskDescription",
          "type": "string"
        },
        {
          "indexed": false,
          "internalType": "uint256",
          "name": "rewardAmount",
          "type": "uint256"
        }
      ],
      "name": "CelodevDetailsUpdated",
      "type": "event"
    },
    {
      "inputs": [
        {
          "internalType": "string",
          "name": "_name",
          "type": "string"
        },
        {
          "internalType": "address",
          "name": "_walletAddress",
          "type": "address"
        },
        {
          "internalType": "string",
          "name": "_paymentCurrency",
          "type": "string"
        },
        {
          "internalType": "string",
          "name": "_taskDescription",
          "type": "string"
        },
        {
          "internalType": "uint256",
          "name": "_rewardAmount",
          "type": "uint256"
        },
        {
          "internalType": "address",
          "name": "user",
          "type": "address"
        }
      ],
      "name": "captureCelodevDetails",
      "outputs": [],
      "stateMutability": "nonpayable",
      "type": "function"
    },
    {
      "inputs": [
        {
          "internalType": "uint256",
          "name": "_index",
          "type": "uint256"
        },
        {
          "internalType": "address",
          "name": "user",
          "type": "address"
        }
      ],
      "name": "deleteCelodevDetails",
      "outputs": [],
      "stateMutability": "nonpayable",
      "type": "function"
    },
    {
      "inputs": [
        {
          "internalType": "uint256",
          "name": "_index",
          "type": "uint256"
        },
        {
          "internalType": "address",
          "name": "user",
          "type": "address"
        }
      ],
      "name": "getCelodevDetails",
      "outputs": [
        {
          "internalType": "address payable",
          "name": "owner",
          "type": "address"
        },
        {
          "internalType": "string",
          "name": "name",
          "type": "string"
        },
        {
          "internalType": "address",
          "name": "walletAddress",
          "type": "address"
        },
        {
          "internalType": "string",
          "name": "paymentCurrency",
          "type": "string"
        },
        {
          "internalType": "string",
          "name": "taskDescription",
          "type": "string"
        },
        {
          "internalType": "uint256",
          "name": "rewardAmount",
          "type": "uint256"
        },
        {
          "internalType": "uint256",
          "name": "dateCaptured",
          "type": "uint256"
        }
      ],
      "stateMutability": "view",
      "type": "function"
    },
    {
      "inputs": [
        {
          "internalType": "address",
          "name": "user",
          "type": "address"
        }
      ],
      "name": "getNumberOfCelodevs",
      "outputs": [
        {
          "internalType": "uint256",
          "name": "",
          "type": "uint256"
        }
      ],
      "stateMutability": "view",
      "type": "function"
    },
    {
      "inputs": [
        {
          "internalType": "uint256",
          "name": "_index",
          "type": "uint256"
        },
        {
          "internalType": "address",
          "name": "_walletAddress",
          "type": "address"
        },
        {
          "internalType": "string",
          "name": "_name",
          "type": "string"
        },
        {
          "internalType": "string",
          "name": "_paymentCurrency",
          "type": "string"
        },
        {
          "internalType": "string",
          "name": "_taskDescription",
          "type": "string"
        },
        {
          "internalType": "uint256",
          "name": "_rewardAmount",
          "type": "uint256"
        },
        {
          "internalType": "address",
          "name": "user",
          "type": "address"
        }
      ],
      "name": "updateCelodevDetails",
      "outputs": [],
      "stateMutability": "nonpayable",
      "type": "function"
    }
  ],
  "bytecode": "0x608060405234801561001057600080fd5b50611ae7806100206000396000f3fe608060405234801561001057600080fd5b50600436106100575760003560e01c806345e927731461005c578063699482271461008c57806371d4fb83146100a8578063b3f1cbe3146100c4578063c309c84a146100e0575b600080fd5b61007660048036038101906100719190610ec4565b610116565b6040516100839190610f0a565b60405180910390f35b6100a660048036038101906100a19190611097565b61015f565b005b6100c260048036038101906100bd9190611178565b6103a9565b005b6100de60048036038101906100d991906111b8565b6107fb565b005b6100fa60048036038101906100f59190611178565b610aa0565b60405161010d979695949392919061135d565b60405180910390f35b6000600160008373ffffffffffffffffffffffffffffffffffffffff1673ffffffffffffffffffffffffffffffffffffffff168152602001908152602001600020549050919050565b6000808273ffffffffffffffffffffffffffffffffffffffff1673ffffffffffffffffffffffffffffffffffffffff1681526020019081526020016000206040518060e001604052808373ffffffffffffffffffffffffffffffffffffffff1681526020018881526020018773ffffffffffffffffffffffffffffffffffffffff16815260200186815260200185815260200184815260200142815250908060018154018082558091505060019003906000526020600020906007020160009091909190915060008201518160000160006101000a81548173ffffffffffffffffffffffffffffffffffffffff021916908373ffffffffffffffffffffffffffffffffffffffff160217905550602082015181600101908161028191906115ed565b5060408201518160020160006101000a81548173ffffffffffffffffffffffffffffffffffffffff021916908373ffffffffffffffffffffffffffffffffffffffff16021790555060608201518160030190816102de91906115ed565b5060808201518160040190816102f491906115ed565b5060a0820151816005015560c082015181600601555050600160008273ffffffffffffffffffffffffffffffffffffffff1673ffffffffffffffffffffffffffffffffffffffff168152602001908152602001600020600081548092919061035b906116ee565b91905055507fc432a10ecb527544202857430cc76da72b60901837b7127e920e690a06a767e185878686864260405161039996959493929190611736565b60405180910390a1505050505050565b8181600160008273ffffffffffffffffffffffffffffffffffffffff1673ffffffffffffffffffffffffffffffffffffffff16815260200190815260200160002054821061042c576040517f08c379a0000000000000000000000000000000000000000000000000000000008152600401610423906117f8565b60405180910390fd5b83838073ffffffffffffffffffffffffffffffffffffffff166000808373ffffffffffffffffffffffffffffffffffffffff1673ffffffffffffffffffffffffffffffffffffffff168152602001908152602001600020838154811061049557610494611818565b5b906000526020600020906007020160000160009054906101000a900473ffffffffffffffffffffffffffffffffffffffff1673ffffffffffffffffffffffffffffffffffffffff161461051d576040517f08c379a0000000000000000000000000000000000000000000000000000000008152600401610514906118b9565b60405180910390fd5b600060018060008873ffffffffffffffffffffffffffffffffffffffff1673ffffffffffffffffffffffffffffffffffffffff1681526020019081526020016000205461056a91906118d9565b905060008060008873ffffffffffffffffffffffffffffffffffffffff1673ffffffffffffffffffffffffffffffffffffffff16815260200190815260200160002082815481106105be576105bd611818565b5b9060005260206000209060070201905060008060008973ffffffffffffffffffffffffffffffffffffffff1673ffffffffffffffffffffffffffffffffffffffff16815260200190815260200160002089815481106106205761061f611818565b5b90600052602060002090600702019050816001018160010190816106449190611938565b508160020160009054906101000a900473ffffffffffffffffffffffffffffffffffffffff168160020160006101000a81548173ffffffffffffffffffffffffffffffffffffffff021916908373ffffffffffffffffffffffffffffffffffffffff160217905550816003018160030190816106c09190611938565b50816004018160030190816106d59190611938565b5081600501548160050181905550816006015481600601819055508160000160009054906101000a900473ffffffffffffffffffffffffffffffffffffffff168160000160006101000a81548173ffffffffffffffffffffffffffffffffffffffff021916908373ffffffffffffffffffffffffffffffffffffffff160217905550600160008973ffffffffffffffffffffffffffffffffffffffff1673ffffffffffffffffffffffffffffffffffffffff16815260200190815260200160002060008154809291906107a790611a20565b9190505550888873ffffffffffffffffffffffffffffffffffffffff167ffba88b91f6200a154126492eb87b597f3a915ca27b7f6dfca5a3e05c2c8a9f2d60405160405180910390a3505050505050505050565b8681600160008273ffffffffffffffffffffffffffffffffffffffff1673ffffffffffffffffffffffffffffffffffffffff16815260200190815260200160002054821061087e576040517f08c379a0000000000000000000000000000000000000000000000000000000008152600401610875906117f8565b60405180910390fd5b88838073ffffffffffffffffffffffffffffffffffffffff166000808373ffffffffffffffffffffffffffffffffffffffff1673ffffffffffffffffffffffffffffffffffffffff16815260200190815260200160002083815481106108e7576108e6611818565b5b906000526020600020906007020160000160009054906101000a900473ffffffffffffffffffffffffffffffffffffffff1673ffffffffffffffffffffffffffffffffffffffff161461096f576040517f08c379a0000000000000000000000000000000000000000000000000000000008152600401610966906118b9565b60405180910390fd5b60008060008773ffffffffffffffffffffffffffffffffffffffff1673ffffffffffffffffffffffffffffffffffffffff1681526020019081526020016000208c815481106109c1576109c0611818565b5b90600052602060002090600702019050898160010190816109e291906115ed565b508a8160020160006101000a81548173ffffffffffffffffffffffffffffffffffffffff021916908373ffffffffffffffffffffffffffffffffffffffff16021790555088816003019081610a3791906115ed565b5087816004019081610a4991906115ed565b508681600501819055507f52663cbb6c7d1dbcdf76e253076f87970abf5445f993979a6b88c8bbebba1f218b8b8b8b8b604051610a8a959493929190611a49565b60405180910390a1505050505050505050505050565b6000606060006060806000808888600160008273ffffffffffffffffffffffffffffffffffffffff1673ffffffffffffffffffffffffffffffffffffffff168152602001908152602001600020548210610b2f576040517f08c379a0000000000000000000000000000000000000000000000000000000008152600401610b26906117f8565b60405180910390fd5b60008060008c73ffffffffffffffffffffffffffffffffffffffff1673ffffffffffffffffffffffffffffffffffffffff1681526020019081526020016000208c81548110610b8157610b80611818565b5b90600052602060002090600702016040518060e00160405290816000820160009054906101000a900473ffffffffffffffffffffffffffffffffffffffff1673ffffffffffffffffffffffffffffffffffffffff1673ffffffffffffffffffffffffffffffffffffffff168152602001600182018054610c0090611410565b80601f0160208091040260200160405190810160405280929190818152602001828054610c2c90611410565b8015610c795780601f10610c4e57610100808354040283529160200191610c79565b820191906000526020600020905b815481529060010190602001808311610c5c57829003601f168201915b505050505081526020016002820160009054906101000a900473ffffffffffffffffffffffffffffffffffffffff1673ffffffffffffffffffffffffffffffffffffffff1673ffffffffffffffffffffffffffffffffffffffff168152602001600382018054610ce890611410565b80601f0160208091040260200160405190810160405280929190818152602001828054610d1490611410565b8015610d615780601f10610d3657610100808354040283529160200191610d61565b820191906000526020600020905b815481529060010190602001808311610d4457829003601f168201915b50505050508152602001600482018054610d7a90611410565b80601f0160208091040260200160405190810160405280929190818152602001828054610da690611410565b8015610df35780601f10610dc857610100808354040283529160200191610df3565b820191906000526020600020905b815481529060010190602001808311610dd657829003601f168201915b50505050508152602001600582015481526020016006820154815250509050806000015181602001518260400151836060015184608001518560a001518660c00151995099509950995099509950995050505092959891949750929550565b6000604051905090565b600080fd5b600080fd5b600073ffffffffffffffffffffffffffffffffffffffff82169050919050565b6000610e9182610e66565b9050919050565b610ea181610e86565b8114610eac57600080fd5b50565b600081359050610ebe81610e98565b92915050565b600060208284031215610eda57610ed9610e5c565b5b6000610ee884828501610eaf565b91505092915050565b6000819050919050565b610f0481610ef1565b82525050565b6000602082019050610f1f6000830184610efb565b92915050565b600080fd5b600080fd5b6000601f19601f8301169050919050565b7f4e487b7100000000000000000000000000000000000000000000000000000000600052604160045260246000fd5b610f7882610f2f565b810181811067ffffffffffffffff82111715610f9757610f96610f40565b5b80604052505050565b6000610faa610e52565b9050610fb68282610f6f565b919050565b600067ffffffffffffffff821115610fd657610fd5610f40565b5b610fdf82610f2f565b9050602081019050919050565b82818337600083830152505050565b600061100e61100984610fbb565b610fa0565b90508281526020810184848401111561102a57611029610f2a565b5b611035848285610fec565b509392505050565b600082601f83011261105257611051610f25565b5b8135611062848260208601610ffb565b91505092915050565b61107481610ef1565b811461107f57600080fd5b50565b6000813590506110918161106b565b92915050565b60008060008060008060c087890312156110b4576110b3610e5c565b5b600087013567ffffffffffffffff8111156110d2576110d1610e61565b5b6110de89828a0161103d565b96505060206110ef89828a01610eaf565b955050604087013567ffffffffffffffff8111156111105761110f610e61565b5b61111c89828a0161103d565b945050606087013567ffffffffffffffff81111561113d5761113c610e61565b5b61114989828a0161103d565b935050608061115a89828a01611082565b92505060a061116b89828a01610eaf565b9150509295509295509295565b6000806040838503121561118f5761118e610e5c565b5b600061119d85828601611082565b92505060206111ae85828601610eaf565b9150509250929050565b600080600080600080600060e0888a0312156111d7576111d6610e5c565b5b60006111e58a828b01611082565b97505060206111f68a828b01610eaf565b965050604088013567ffffffffffffffff81111561121757611216610e61565b5b6112238a828b0161103d565b955050606088013567ffffffffffffffff81111561124457611243610e61565b5b6112508a828b0161103d565b945050608088013567ffffffffffffffff81111561127157611270610e61565b5b61127d8a828b0161103d565b93505060a061128e8a828b01611082565b92505060c061129f8a828b01610eaf565b91505092959891949750929550565b60006112b982610e66565b9050919050565b6112c9816112ae565b82525050565b600081519050919050565b600082825260208201905092915050565b60005b838110156113095780820151818401526020810190506112ee565b60008484015250505050565b6000611320826112cf565b61132a81856112da565b935061133a8185602086016112eb565b61134381610f2f565b840191505092915050565b61135781610e86565b82525050565b600060e082019050611372600083018a6112c0565b81810360208301526113848189611315565b9050611393604083018861134e565b81810360608301526113a58187611315565b905081810360808301526113b98186611315565b90506113c860a0830185610efb565b6113d560c0830184610efb565b98975050505050505050565b7f4e487b7100000000000000000000000000000000000000000000000000000000600052602260045260246000fd5b6000600282049050600182168061142857607f821691505b60208210810361143b5761143a6113e1565b5b50919050565b60008190508160005260206000209050919050565b60006020601f8301049050919050565b600082821b905092915050565b6000600883026114a37fffffffffffffffffffffffffffffffffffffffffffffffffffffffffffffffff82611466565b6114ad8683611466565b95508019841693508086168417925050509392505050565b6000819050919050565b60006114ea6114e56114e084610ef1565b6114c5565b610ef1565b9050919050565b6000819050919050565b611504836114cf565b611518611510826114f1565b848454611473565b825550505050565b600090565b61152d611520565b6115388184846114fb565b505050565b5b8181101561155c57611551600082611525565b60018101905061153e565b5050565b601f8211156115a15761157281611441565b61157b84611456565b8101602085101561158a578190505b61159e61159685611456565b83018261153d565b50505b505050565b600082821c905092915050565b60006115c4600019846008026115a6565b1980831691505092915050565b60006115dd83836115b3565b9150826002028217905092915050565b6115f6826112cf565b67ffffffffffffffff81111561160f5761160e610f40565b5b6116198254611410565b611624828285611560565b600060209050601f8311600181146116575760008415611645578287015190505b61164f85826115d1565b8655506116b7565b601f19841661166586611441565b60005b8281101561168d57848901518255600182019150602085019450602081019050611668565b868310156116aa57848901516116a6601f8916826115b3565b8355505b6001600288020188555050505b505050505050565b7f4e487b7100000000000000000000000000000000000000000000000000000000600052601160045260246000fd5b60006116f982610ef1565b91507fffffffffffffffffffffffffffffffffffffffffffffffffffffffffffffffff820361172b5761172a6116bf565b5b600182019050919050565b600060c08201905061174b600083018961134e565b818103602083015261175d8188611315565b905081810360408301526117718187611315565b905081810360608301526117858186611315565b90506117946080830185610efb565b6117a160a0830184610efb565b979650505050505050565b7f496e76616c69642043656c6f64657620696e6465780000000000000000000000600082015250565b60006117e26015836112da565b91506117ed826117ac565b602082019050919050565b60006020820190508181036000830152611811816117d5565b9050919050565b7f4e487b7100000000000000000000000000000000000000000000000000000000600052603260045260246000fd5b7f596f7520617265206e6f7420617574686f72697a656420746f20706572666f7260008201527f6d207468697320616374696f6e00000000000000000000000000000000000000602082015250565b60006118a3602d836112da565b91506118ae82611847565b604082019050919050565b600060208201905081810360008301526118d281611896565b9050919050565b60006118e482610ef1565b91506118ef83610ef1565b9250828203905081811115611907576119066116bf565b5b92915050565b60008154905061191c81611410565b9050919050565b60008190508160005260206000209050919050565b818103611946575050611a1e565b61194f8261190d565b67ffffffffffffffff81111561196857611967610f40565b5b6119728254611410565b61197d828285611560565b6000601f8311600181146119ac576000841561199a578287015490505b6119a485826115d1565b865550611a17565b601f1984166119ba87611923565b96506119c586611441565b60005b828110156119ed578489015482556001820191506001850194506020810190506119c8565b86831015611a0a5784890154611a06601f8916826115b3565b8355505b6001600288020188555050505b5050505050505b565b6000611a2b82610ef1565b915060008203611a3e57611a3d6116bf565b5b600182039050919050565b600060a082019050611a5e600083018861134e565b8181036020830152611a708187611315565b90508181036040830152611a848186611315565b90508181036060830152611a988185611315565b9050611aa76080830184610efb565b969550505050505056fea26469706673582212203bfa27d820386390bd9b717d52f88542c45d4779a719c36c57ca12949b2ebe5964736f6c63430008130033",
  "linkReferences": {},
  "deployedLinkReferences": {}
}