{
  "_format": "hh-sol-artifact-1",
  "contractName": "EmployeeDetails",
  "sourceName": "contracts/EmployeeDetails.sol",
  "abi": [
    {
      "anonymous": false,
      "inputs": [
        {
          "indexed": false,
          "internalType": "address",
          "name": "walletAddress",
          "type": "address"
        },
        {
          "indexed": false,
          "internalType": "string",
          "name": "name",
          "type": "string"
        },
        {
          "indexed": false,
          "internalType": "string",
          "name": "paymentMethod",
          "type": "string"
        },
        {
          "indexed": false,
          "internalType": "uint256",
          "name": "salary",
          "type": "uint256"
        },
        {
          "indexed": false,
          "internalType": "uint256",
          "name": "dateCaptured",
          "type": "uint256"
        }
      ],
      "name": "EmployeeDetailsCaptured",
      "type": "event"
    },
    {
      "anonymous": false,
      "inputs": [
        {
          "indexed": true,
          "internalType": "address",
          "name": "owner",
          "type": "address"
        },
        {
          "indexed": true,
          "internalType": "uint256",
          "name": "index",
          "type": "uint256"
        }
      ],
      "name": "EmployeeDetailsDeleted",
      "type": "event"
    },
    {
      "anonymous": false,
      "inputs": [
        {
          "indexed": false,
          "internalType": "address",
          "name": "walletAddress",
          "type": "address"
        },
        {
          "indexed": false,
          "internalType": "string",
          "name": "name",
          "type": "string"
        },
        {
          "indexed": false,
          "internalType": "string",
          "name": "paymentMethod",
          "type": "string"
        },
        {
          "indexed": false,
          "internalType": "uint256",
          "name": "salary",
          "type": "uint256"
        }
      ],
      "name": "EmployeeDetailsUpdated",
      "type": "event"
    },
    {
      "inputs": [
        {
          "internalType": "string",
          "name": "_name",
          "type": "string"
        },
        {
          "internalType": "address",
          "name": "_walletAddress",
          "type": "address"
        },
        {
          "internalType": "string",
          "name": "_paymentMethod",
          "type": "string"
        },
        {
          "internalType": "uint256",
          "name": "_salary",
          "type": "uint256"
        }
      ],
      "name": "captureEmployeeDetails",
      "outputs": [],
      "stateMutability": "nonpayable",
      "type": "function"
    },
    {
      "inputs": [
        {
          "internalType": "uint256",
          "name": "_index",
          "type": "uint256"
        }
      ],
      "name": "deleteEmployeeDetails",
      "outputs": [],
      "stateMutability": "nonpayable",
      "type": "function"
    },
    {
      "inputs": [
        {
          "internalType": "uint256",
          "name": "_index",
          "type": "uint256"
        }
      ],
      "name": "getEmployeeDetails",
      "outputs": [
        {
          "internalType": "address payable",
          "name": "owner",
          "type": "address"
        },
        {
          "internalType": "string",
          "name": "name",
          "type": "string"
        },
        {
          "internalType": "address",
          "name": "walletAddress",
          "type": "address"
        },
        {
          "internalType": "string",
          "name": "paymentMethod",
          "type": "string"
        },
        {
          "internalType": "uint256",
          "name": "salary",
          "type": "uint256"
        },
        {
          "internalType": "uint256",
          "name": "dateCaptured",
          "type": "uint256"
        }
      ],
      "stateMutability": "view",
      "type": "function"
    },
    {
      "inputs": [],
      "name": "getNumberOfEmployees",
      "outputs": [
        {
          "internalType": "uint256",
          "name": "",
          "type": "uint256"
        }
      ],
      "stateMutability": "view",
      "type": "function"
    },
    {
      "inputs": [
        {
          "internalType": "uint256",
          "name": "_index",
          "type": "uint256"
        },
        {
          "internalType": "address",
          "name": "_walletAddress",
          "type": "address"
        },
        {
          "internalType": "string",
          "name": "_name",
          "type": "string"
        },
        {
          "internalType": "string",
          "name": "_paymentMethod",
          "type": "string"
        },
        {
          "internalType": "uint256",
          "name": "_salary",
          "type": "uint256"
        }
      ],
      "name": "updateEmployeeDetails",
      "outputs": [],
      "stateMutability": "nonpayable",
      "type": "function"
    }
  ],
  "bytecode": "0x608060405234801561001057600080fd5b506118db806100206000396000f3fe608060405234801561001057600080fd5b50600436106100575760003560e01c806312dee6eb1461005c57806335bc14ab14610078578063888e1d051461009457806394f1f6d1146100b2578063a98b371b146100ce575b600080fd5b61007660048036038101906100719190610f38565b610103565b005b610092600480360381019061008d9190610feb565b61038e565b005b61009c6107c6565b6040516100a99190611027565b60405180910390f35b6100cc60048036038101906100c79190611042565b61080d565b005b6100e860048036038101906100e39190610feb565b610a37565b6040516100fa96959493929190611190565b60405180910390f35b84600160003373ffffffffffffffffffffffffffffffffffffffff1673ffffffffffffffffffffffffffffffffffffffff168152602001908152602001600020548110610185576040517f08c379a000000000000000000000000000000000000000000000000000000000815260040161017c9061124b565b60405180910390fd5b853373ffffffffffffffffffffffffffffffffffffffff166000803373ffffffffffffffffffffffffffffffffffffffff1673ffffffffffffffffffffffffffffffffffffffff16815260200190815260200160002082815481106101ed576101ec61126b565b5b906000526020600020906006020160000160009054906101000a900473ffffffffffffffffffffffffffffffffffffffff1673ffffffffffffffffffffffffffffffffffffffff1614610275576040517f08c379a000000000000000000000000000000000000000000000000000000000815260040161026c9061130c565b60405180910390fd5b60008060003373ffffffffffffffffffffffffffffffffffffffff1673ffffffffffffffffffffffffffffffffffffffff16815260200190815260200160002088815481106102c7576102c661126b565b5b90600052602060002090600602019050858160010190816102e89190611538565b50868160020160006101000a81548173ffffffffffffffffffffffffffffffffffffffff021916908373ffffffffffffffffffffffffffffffffffffffff1602179055508481600301908161033d9190611538565b508381600401819055507ffb6139c8c65ba496efcf7e7e222bc9a9a54affd767c9abb2abfc88ca26d8ec648787878760405161037c949392919061160a565b60405180910390a15050505050505050565b80600160003373ffffffffffffffffffffffffffffffffffffffff1673ffffffffffffffffffffffffffffffffffffffff168152602001908152602001600020548110610410576040517f08c379a00000000000000000000000000000000000000000000000000000000081526004016104079061124b565b60405180910390fd5b813373ffffffffffffffffffffffffffffffffffffffff166000803373ffffffffffffffffffffffffffffffffffffffff1673ffffffffffffffffffffffffffffffffffffffff16815260200190815260200160002082815481106104785761047761126b565b5b906000526020600020906006020160000160009054906101000a900473ffffffffffffffffffffffffffffffffffffffff1673ffffffffffffffffffffffffffffffffffffffff1614610500576040517f08c379a00000000000000000000000000000000000000000000000000000000081526004016104f79061130c565b60405180910390fd5b600060018060003373ffffffffffffffffffffffffffffffffffffffff1673ffffffffffffffffffffffffffffffffffffffff1681526020019081526020016000205461054d919061168c565b905060008060003373ffffffffffffffffffffffffffffffffffffffff1673ffffffffffffffffffffffffffffffffffffffff16815260200190815260200160002082815481106105a1576105a061126b565b5b9060005260206000209060060201905060008060003373ffffffffffffffffffffffffffffffffffffffff1673ffffffffffffffffffffffffffffffffffffffff16815260200190815260200160002086815481106106035761060261126b565b5b906000526020600020906006020190508160010181600101908161062791906116eb565b508160020160009054906101000a900473ffffffffffffffffffffffffffffffffffffffff168160020160006101000a81548173ffffffffffffffffffffffffffffffffffffffff021916908373ffffffffffffffffffffffffffffffffffffffff160217905550816003018160030190816106a391906116eb565b5081600401548160040181905550816005015481600501819055508160000160009054906101000a900473ffffffffffffffffffffffffffffffffffffffff168160000160006101000a81548173ffffffffffffffffffffffffffffffffffffffff021916908373ffffffffffffffffffffffffffffffffffffffff160217905550600160003373ffffffffffffffffffffffffffffffffffffffff1673ffffffffffffffffffffffffffffffffffffffff1681526020019081526020016000206000815480929190610775906117d3565b9190505550853373ffffffffffffffffffffffffffffffffffffffff167f76ee35afa69f4f45094f08f7b5d28a51c715fb49389a13c3e268aa0b35235b0860405160405180910390a3505050505050565b6000600160003373ffffffffffffffffffffffffffffffffffffffff1673ffffffffffffffffffffffffffffffffffffffff16815260200190815260200160002054905090565b6000803373ffffffffffffffffffffffffffffffffffffffff1673ffffffffffffffffffffffffffffffffffffffff1681526020019081526020016000206040518060c001604052803373ffffffffffffffffffffffffffffffffffffffff1681526020018681526020018573ffffffffffffffffffffffffffffffffffffffff16815260200184815260200183815260200142815250908060018154018082558091505060019003906000526020600020906006020160009091909190915060008201518160000160006101000a81548173ffffffffffffffffffffffffffffffffffffffff021916908373ffffffffffffffffffffffffffffffffffffffff16021790555060208201518160010190816109299190611538565b5060408201518160020160006101000a81548173ffffffffffffffffffffffffffffffffffffffff021916908373ffffffffffffffffffffffffffffffffffffffff16021790555060608201518160030190816109869190611538565b506080820151816004015560a082015181600501555050600160003373ffffffffffffffffffffffffffffffffffffffff1673ffffffffffffffffffffffffffffffffffffffff16815260200190815260200160002060008154809291906109ed906117fc565b91905055507f66b731ec99b5eced3626da16bfd4e5d2d627e21e634f8b9c66927d77dd47002c8385848442604051610a29959493929190611844565b60405180910390a150505050565b600060606000606060008086600160003373ffffffffffffffffffffffffffffffffffffffff1673ffffffffffffffffffffffffffffffffffffffff168152602001908152602001600020548110610ac4576040517f08c379a0000000000000000000000000000000000000000000000000000000008152600401610abb9061124b565b60405180910390fd5b60008060003373ffffffffffffffffffffffffffffffffffffffff1673ffffffffffffffffffffffffffffffffffffffff1681526020019081526020016000208981548110610b1657610b1561126b565b5b90600052602060002090600602016040518060c00160405290816000820160009054906101000a900473ffffffffffffffffffffffffffffffffffffffff1673ffffffffffffffffffffffffffffffffffffffff1673ffffffffffffffffffffffffffffffffffffffff168152602001600182018054610b959061135b565b80601f0160208091040260200160405190810160405280929190818152602001828054610bc19061135b565b8015610c0e5780601f10610be357610100808354040283529160200191610c0e565b820191906000526020600020905b815481529060010190602001808311610bf157829003601f168201915b505050505081526020016002820160009054906101000a900473ffffffffffffffffffffffffffffffffffffffff1673ffffffffffffffffffffffffffffffffffffffff1673ffffffffffffffffffffffffffffffffffffffff168152602001600382018054610c7d9061135b565b80601f0160208091040260200160405190810160405280929190818152602001828054610ca99061135b565b8015610cf65780601f10610ccb57610100808354040283529160200191610cf6565b820191906000526020600020905b815481529060010190602001808311610cd957829003601f168201915b50505050508152602001600482015481526020016005820154815250509050806000015181602001518260400151836060015184608001518560a00151975097509750975097509750505091939550919395565b6000604051905090565b600080fd5b600080fd5b6000819050919050565b610d7181610d5e565b8114610d7c57600080fd5b50565b600081359050610d8e81610d68565b92915050565b600073ffffffffffffffffffffffffffffffffffffffff82169050919050565b6000610dbf82610d94565b9050919050565b610dcf81610db4565b8114610dda57600080fd5b50565b600081359050610dec81610dc6565b92915050565b600080fd5b600080fd5b6000601f19601f8301169050919050565b7f4e487b7100000000000000000000000000000000000000000000000000000000600052604160045260246000fd5b610e4582610dfc565b810181811067ffffffffffffffff82111715610e6457610e63610e0d565b5b80604052505050565b6000610e77610d4a565b9050610e838282610e3c565b919050565b600067ffffffffffffffff821115610ea357610ea2610e0d565b5b610eac82610dfc565b9050602081019050919050565b82818337600083830152505050565b6000610edb610ed684610e88565b610e6d565b905082815260208101848484011115610ef757610ef6610df7565b5b610f02848285610eb9565b509392505050565b600082601f830112610f1f57610f1e610df2565b5b8135610f2f848260208601610ec8565b91505092915050565b600080600080600060a08688031215610f5457610f53610d54565b5b6000610f6288828901610d7f565b9550506020610f7388828901610ddd565b945050604086013567ffffffffffffffff811115610f9457610f93610d59565b5b610fa088828901610f0a565b935050606086013567ffffffffffffffff811115610fc157610fc0610d59565b5b610fcd88828901610f0a565b9250506080610fde88828901610d7f565b9150509295509295909350565b60006020828403121561100157611000610d54565b5b600061100f84828501610d7f565b91505092915050565b61102181610d5e565b82525050565b600060208201905061103c6000830184611018565b92915050565b6000806000806080858703121561105c5761105b610d54565b5b600085013567ffffffffffffffff81111561107a57611079610d59565b5b61108687828801610f0a565b945050602061109787828801610ddd565b935050604085013567ffffffffffffffff8111156110b8576110b7610d59565b5b6110c487828801610f0a565b92505060606110d587828801610d7f565b91505092959194509250565b60006110ec82610d94565b9050919050565b6110fc816110e1565b82525050565b600081519050919050565b600082825260208201905092915050565b60005b8381101561113c578082015181840152602081019050611121565b60008484015250505050565b600061115382611102565b61115d818561110d565b935061116d81856020860161111e565b61117681610dfc565b840191505092915050565b61118a81610db4565b82525050565b600060c0820190506111a560008301896110f3565b81810360208301526111b78188611148565b90506111c66040830187611181565b81810360608301526111d88186611148565b90506111e76080830185611018565b6111f460a0830184611018565b979650505050505050565b7f496e76616c696420656d706c6f79656520696e64657800000000000000000000600082015250565b600061123560168361110d565b9150611240826111ff565b602082019050919050565b6000602082019050818103600083015261126481611228565b9050919050565b7f4e487b7100000000000000000000000000000000000000000000000000000000600052603260045260246000fd5b7f596f7520617265206e6f7420617574686f72697a656420746f20706572666f7260008201527f6d207468697320616374696f6e00000000000000000000000000000000000000602082015250565b60006112f6602d8361110d565b91506113018261129a565b604082019050919050565b60006020820190508181036000830152611325816112e9565b9050919050565b7f4e487b7100000000000000000000000000000000000000000000000000000000600052602260045260246000fd5b6000600282049050600182168061137357607f821691505b6020821081036113865761138561132c565b5b50919050565b60008190508160005260206000209050919050565b60006020601f8301049050919050565b600082821b905092915050565b6000600883026113ee7fffffffffffffffffffffffffffffffffffffffffffffffffffffffffffffffff826113b1565b6113f886836113b1565b95508019841693508086168417925050509392505050565b6000819050919050565b600061143561143061142b84610d5e565b611410565b610d5e565b9050919050565b6000819050919050565b61144f8361141a565b61146361145b8261143c565b8484546113be565b825550505050565b600090565b61147861146b565b611483818484611446565b505050565b5b818110156114a75761149c600082611470565b600181019050611489565b5050565b601f8211156114ec576114bd8161138c565b6114c6846113a1565b810160208510156114d5578190505b6114e96114e1856113a1565b830182611488565b50505b505050565b600082821c905092915050565b600061150f600019846008026114f1565b1980831691505092915050565b600061152883836114fe565b9150826002028217905092915050565b61154182611102565b67ffffffffffffffff81111561155a57611559610e0d565b5b611564825461135b565b61156f8282856114ab565b600060209050601f8311600181146115a25760008415611590578287015190505b61159a858261151c565b865550611602565b601f1984166115b08661138c565b60005b828110156115d8578489015182556001820191506020850194506020810190506115b3565b868310156115f557848901516115f1601f8916826114fe565b8355505b6001600288020188555050505b505050505050565b600060808201905061161f6000830187611181565b81810360208301526116318186611148565b905081810360408301526116458185611148565b90506116546060830184611018565b95945050505050565b7f4e487b7100000000000000000000000000000000000000000000000000000000600052601160045260246000fd5b600061169782610d5e565b91506116a283610d5e565b92508282039050818111156116ba576116b961165d565b5b92915050565b6000815490506116cf8161135b565b9050919050565b60008190508160005260206000209050919050565b8181036116f95750506117d1565b611702826116c0565b67ffffffffffffffff81111561171b5761171a610e0d565b5b611725825461135b565b6117308282856114ab565b6000601f83116001811461175f576000841561174d578287015490505b611757858261151c565b8655506117ca565b601f19841661176d876116d6565b96506117788661138c565b60005b828110156117a05784890154825560018201915060018501945060208101905061177b565b868310156117bd57848901546117b9601f8916826114fe565b8355505b6001600288020188555050505b5050505050505b565b60006117de82610d5e565b9150600082036117f1576117f061165d565b5b600182039050919050565b600061180782610d5e565b91507fffffffffffffffffffffffffffffffffffffffffffffffffffffffffffffffff82036118395761183861165d565b5b600182019050919050565b600060a0820190506118596000830188611181565b818103602083015261186b8187611148565b9050818103604083015261187f8186611148565b905061188e6060830185611018565b61189b6080830184611018565b969550505050505056fea26469706673582212200a63aed48d6e867dd85de927b4303cfd706138333323919227b6e5634ea98bff64736f6c63430008130033",
  "linkReferences": {},
  "deployedLinkReferences": {}
}